:020000040000fa
:080000000002040000000000f2
:020000040000fa
:100400004f872300007f24000001880000000000c7
:100410000c000700a0c82100010020001100070007
:10042000000020000000e000020032000000020096
:10043000000000001a1b0200000000000040da006b
:100440000000fe004440a900000020000000e00081
:100450000300320000002000a00188004440a800f2
:100460000000060091018800800078000000eb0089
:1004700015003700e280400032a0b4009101ba00bc
:10048000e280400032a0b4009102ba00e280400055
:1004900032a0b4000002eb00472bde00f507b200eb
:1004a000602ce10004003a000059eb008301e900f0
:1004b000fdff3e00040037006128e100010032002a
:1004c0000082eb00040007001101ba000200e00006
:1004d000e8ff3a00000006003159ba008301e90044
:1004e0000c0032002159ba008301e90008003200f3
:1004f0000400e00003003a00e280400032a0b400b3
:10050000f5ff370011d9ba008301e900faff3a007c
:100510008100e800e180400032a0b4000000060045
:10052000401a040000000000241a0400000000002b
:100530009e19040000000000889fbe00e3044000f4
:100540000900a100808f54004a003600e38f540058
:1005500001003e0049002000724380000200e000dc
:1005600002003200820078000c0037000187200072
:1005700003003700908f5400230036008080e8008d
:10058000110078000000e000faff3a000f00370089
:10059000908f54001c0036008080e8001100780025
:1005a0000000e000faff3a00120178000187200005
:1005b00003003700908f5400130036008080e8005d
:1005c00011007800820f5000faff3a006843800063
:1005d000890f5400010031000904780008007800f8
:1005e0005b0007000000e00004003a00890f54009f
:1005f000200032000804d100f5ff37000818780009
:100600001f000700d4ff3700110178009201780025
:1006100064805100890f50000300310012009000e7
:100620008008780007003700090041008008780042
:1006300092019000130098001100780012881400b5
:1006400009097800910078000100e00005003200ff
:10065000110090000000e000020032000180e8007c
:10066000010037000000eb00704388000280e800c2
:10067000010037000000eb004f04be000000060040
:100680000000e000310032008080e9009102780033
:10069000e38f52002d0036000508a3002b003a001e
:1006a000824380000200e00002003200828f50008e
:1006b00004003100020878008143880016003700ea
:1006c00003017800920190000300e0000200320074
:1006d000818f5100faff39001202780004004100b6
:1006e000808f500019003900810f500003003a003c
:1006f0000509420082007800070037000300e0008f
:100700000300320005804000808f51000f00390047
:100710009300980011019800110190000200e00080
:100720000a00320011804000820f500007003a009a
:10073000e08620000008eb00110090001101780015
:100740009008410010009000900098000000060002
:100750000000e0000300340004000700e10f400047
:1007600001003a000000eb0000000600889fbe0078
:1007700080047800904380000000e00003003a000d
:10078000100007000000e0000a00350090438000e0
:100790000900e00002003a0000047800060037007b
:1007a0000004780009004000060007000000e00097
:1007b00001003d000084eb00080078004f04be00fb
:1007c00000000600800078000000e00004003a000d
:1007d0004087200090438800010178000600370020
:1007e0000081eb0040872300808f500002003e0014
:1007f000914388000001eb00020078000000060031
:10080000889fbe008a9fbe00010578000100e000bd
:100810000400350008003c000000e0002000320029
:100820000500370060001000e080180002003b0067
:1008300001f02c001a0037000004be006011b8005f
:100840006b0920000982cf00020039000882cf0026
:100850000441b000694252000e00320008003b0023
:1008600082817100610164008904d1000884d30091
:100870008b05e8000442e800f9ff3a000500370064
:100880000804440089844c008b05e9000442e90017
:10089000fbff3a00e90007000af0a70001f0a00002
:1008a0004f05be004f04be000000060003f0a2008a
:1008b000889fbe008a9fbe008c1f7800050107003c
:1008c0000c0133006450e1004f0032006420e1006d
:1008d0005200320003826c0007003b000905d00083
:1008e0000306d000820f54000c065d0002003900a0
:1008f00002003200890178000306780085825500e5
:1009000004003d000003fd008103fd008502ea00b4
:100910008b854200840f720002003b0060001000d3
:10092000e08018006011b8000005eb007a28e100b3
:100930000a00390006007800c75ddd00f707b20045
:10094000878075002d003700828171000a017800d0
:10095000610560008180d1000080d3008502e9003c
:10096000f9ff3b00060440008784480002003b007a
:1009700060041400e0841c000988a3000700320012
:100980008a81710082817100610164008904d10053
:100990000884d3008b05e800170037000978a3000e
:1009a00013003a000b00e000130034008b05e9004f
:1009b0000804440089844c000a4474000978a300a8
:1009c0000d003a000b00e000070034008b05e90041
:1009d0000804440089844c0001003a000b00200008
:1009e0000978a300f7ff32000001eb000200370096
:1009f000828171000a017800900007000cf0a700c6
:100a000001f0a000c40037006420e10002003a00b9
:100a1000838f6c00c40033000801be000200be00da
:100a2000bd003700889fbe008a9fbe008c1f7800e3
:100a3000a8000700af00330003866c006450e1009b
:100a40002e0032006420e100330032006150e100ea
:100a50002f0032006120e100310032008585550011
:100a6000eb07b00009002000080420000500370053
:100a70000804440089844c000a0031000603430046
:100a800087834b000001530081815b00f8ff330036
:100a90000203be000800a0000804440089844c0042
:100aa000f6ff3900c639dd00830173000100320012
:100ab000130020008904d1000884d3000998a30002
:100ac000050032000800a7000300a0008904d1003f
:100ad0000884d3008b05e8008904d1000884d30082
:100ae0000001eb000281d2005400070001f0a100d8
:100af0000cf0a70001f0a000870037006420e1009f
:100b0000890032000801be000200be00f7ff370076
:100b10006120e100840032006000b800f3ff37007c
:100b20000000200001f82700f0ff3700889fbe007a
:100b30008a9fbe008c1f7800660007006d0033009e
:100b400003866c006450e100240032006420e10060
:100b5000270032006150e100220032006120e100f4
:100b6000210032008b854200eb07b1000134b80050
:100b7000003ab8000804420089844a00013ab800eb
:100b80000030b8008880400009014a0004003300aa
:100b90000000400081804800020149008b05e90007
:100ba000c909dd008301700001003200130020003c
:100bb000c814de004814dd004709de001200b20050
:100bc000c808de00088470001c00070001f0a100c6
:100bd0000cf0a70001f0a0004f0037006120e100f9
:100be000510032000801be000200be00f7ff3700ce
:100bf0006150e100fcff3a004b0037006022b80072
:100c0000060220000000d0008180d2000482d200c1
:100c10008582d2000000a0000202520083825a00a6
:100c2000030031000202420083824a000000a1005a
:100c30000603e900f3ff3a000000060081002000ef
:100c4000618055000b003d000b00200061fe2f006d
:100c50000100e1001d003400828171006101640027
:100c60008904d1000884d3000000e800faff3a00ac
:100c70007100200061006400030070000200600049
:100c80000900320061044400e0844c000988a5009a
:100c9000050032008b05e8006808e10002003a0018
:100ca0008904d1000884d300f20f20000258e1002b
:100cb00005003d00c75ddd00f907b20089807500c1
:100cc00008007800000006000bf827008b00780071
:100cd000000005000004be00160007000003be006f
:100ce0000405be000200be0012000700844f75001c
:100cf000000006000200be006450e100050036005e
:100d00006420e100020036000968a30001003a00f7
:100d10000800be000160a0004f0678004f05be002d
:100d20004f04be0000000600f0ff2f00f1ff270077
:100d3000f9ff3700c70ade00f107b200f50fb20075
:100d400008003200e1cf4200020032000170a00032
:100d500024000500810f7000010032000408050026
:100d600044000500810f700002003a0014000500e5
:100d70008502e9000000400081c04800fcff3b0004
:100d80000170a000240005008680a900e7416000f2
:100d9000e10a20009140780082cfb30082c0600059
:100da00083c070008000fd00aee0b7008000fd0051
:100db000680160004311de004411dd00610920007c
:100dc000914078000144a10082c070008000fd00c5
:100dd00096e0b7008000fd00700060004400de0077
:100de0000040400021082000914078000114a1003b
:100df00080c070000100780082e0b70000000600ab
:100e0000889fbe008a9fbe008c9fbe008005780030
:100e10008106780002067800800478000005eb0067
:100e2000150037001662a8000004eb00030037002d
:100e30008c0f5400130031000804e800d5000700af
:100e40000004e000faff32008010800080767d0010
:100e50008904e90002003a0016a2a8000100370048
:100e600016a2a9001682a80016c2bf000048a3005f
:100e7000fdff3a000a05e8008b0f5500e9ff3a0034
:100e80008004eb00090078004f06be004f05be004d
:100e90004f04be00000006000080fb009010880098
:100ea0000080eb001842e2000800350019c2bf00c4
:100eb0000068a300fdff3a000c000700e0ff2f00d0
:100ec0001942e200010035000000eb0000000600be
:100ed0001602a800000006001642a8000000060046
:100ee000a1108800b01088000000060016c2bf00e4
:100ef0000008a300fdff3a0016c2bf000028a300af
:100f0000faff3a0016c2bf000038a300f7ff3a000c
:100f100016c2bf000018a300f4ff3a0016c2bf00bb
:100f20000048a300f1ff3a0019c2bf000068a30007
:100f3000eeff3a00000006008aa0a900e741600029
:100f4000c419dd00e10b200091407800f2c8b30025
:100f500082c0600083c070008000fd00bee0b7006a
:100f60008000fd00680160004311de004511dd00d6
:100f7000a1092000914078000154a10082c07000b6
:100f80008000fd009ae0b7008000fd007000600066
:100f90004400de004300dd0021082000914078007d
:100fa0000134a10080c070000100780082e0b70029
:100fb00000000600889fbe008a9fbe008c9fbe0076
:100fc00080057800810678000206780080047800a9
:100fd0000005eb00150037000662a8000004eb00d6
:100fe000030037008c0f5400130031000804e800a0
:100ff0006c0007000004e000faff320000108000df
:1010000080767d008904e90002003a0006a2a8006b
:101010000100370006a2a9000682a80006c2bf0090
:101020000048a300fdff3a000a05e8008b0f5500b9
:10103000e9ff3a008004eb00090078004f06be008b
:101040004f05be004f04be00000006000080fb00fc
:10105000101088000080eb000842e2000800350014
:1010600009c2bf000068a300fdff3a00140007009a
:10107000e0ff2f000942e200010035000000eb0014
:10108000000006000662a80006c2bf000038a300e8
:10109000fdff3a0008c2a900001080000080fb009c
:1010a000000006000602a800000006000642a80094
:1010b00000000600211088003010880000000600a3
:1010c00006c2bf000008a300fdff3a0006c2bf0031
:1010d0000028a300faff3a0006c2bf000038a300b0
:1010e000f7ff3a0006c2bf000018a300f4ff3a0061
:1010f00006c2bf000048a300f1ff3a0009c2bf00ca
:101100000068a300eeff3a00000006008ac0a900b4
:10111000e7416000f10b20009140780082cfb300de
:1011200082c0600083c070008000fd00bfe0b70097
:101130008000fd00680160004311de004611dd0003
:10114000a1092000914078000164a10082c07000d4
:101150008000fd009ae0b7008000fd007000600094
:101160004400de004400dd002108200091407800aa
:101170000144a10080c070000100780082e0b70047
:10118000000006003021ef00b1098800d009880076
:101190000000060018c2bf000000d100610060001e
:1011a0000000060008c2bf000000d100610060001e
:0411b0000000060035
:020000040000fa
:0200000401f009
:04000c00fbff0000f6
:020000040000fa
:0200000401f009
:04001000bcff000031
:020000040000fa
:0200000401f009
:040014007fff00006a
:020000040000fa
:10000800d81c0000d81c0000d81c0000d81c000018
:10001800d81c0000d81c0000d81c0000d81c000008
:10002800d81c0000d81c0000d81c0000d81c0000f8
:10003800d81c0000d81c0000d81c0000d81c0000e8
:10004800d81c0000d81c0000d81c0000d81c0000d8
:10005800d81c0000d81c0000d81c0000d81c0000c8
:10006800d81c0000d81c0000d81c0000d81c0000b8
:10007800b4110000d81c0000d81c0000d81c0000d7
:10008800d81c0000d81c0000d81c0000d81c000098
:10009800d81c0000d81c0000d81c0000d81c000088
:1000a800d81c0000d81c0000d81c0000d81c000078
:1000b800d81c0000d81c0000d81c0000d81c000068
:1000c800d81c0000d81c0000d81c0000d81c000058
:1000d800d81c0000d81c0000d81c0000d81c000048
:1000e800d81c0000d81c0000d81c0000d81c000038
:1000f800d81c00009a1400003a0a0000d81c00001e
:10010800d81c0000d81c0000d81c0000d81c000017
:10011800d81c0000d81c0000d81c0000d81c000007
:10012800d81c0000d81c0000d81c0000d81c0000f7
:10013800d81c0000d81c0000d81c0000d81c0000e7
:10014800d81c0000d81c0000d81c0000d81c0000d7
:10015800d81c0000d81c0000d81c0000d81c0000c7
:10016800d81c0000d81c0000d81c0000d81c0000b7
:10017800d81c0000d81c0000d81c0000d81c0000a7
:10018800d81c0000d81c0000d81c0000d81c000097
:10019800d81c0000d81c0000d81c0000d81c000087
:1001a800d81c0000d81c0000d81c0000d81c000077
:1001b800d81c0000d81c0000d81c0000d81c000067
:1001c800d81c0000d81c0000d81c0000d81c000057
:1001d800d81c0000d81c0000d81c0000d81c000047
:1001e800d81c0000d81c0000d81c0000d81c000037
:0801f800d81c0000d81c000017
:020000040000fa
:10020800d81c0000d81c0000d81c0000d81c000016
:10021800d81c0000d81c0000d81c0000d81c000006
:10022800d81c0000d81c0000d81c0000d81c0000f6
:10023800d81c0000d81c0000d81c0000d81c0000e6
:10024800d81c0000d81c0000d81c0000d81c0000d6
:10025800d81c0000d81c0000d81c0000d81c0000c6
:10026800d81c0000d81c0000d81c0000d81c0000b6
:10027800b4110000d81c0000d81c0000d81c0000d5
:10028800d81c0000d81c0000d81c0000d81c000096
:10029800d81c0000d81c0000d81c0000d81c000086
:1002a800d81c0000d81c0000d81c0000d81c000076
:1002b800d81c0000d81c0000d81c0000d81c000066
:1002c800d81c0000d81c0000d81c0000d81c000056
:1002d800d81c0000d81c0000d81c0000d81c000046
:1002e800d81c0000d81c0000d81c0000d81c000036
:1002f800d81c00009a1400003a0a0000d81c00001c
:10030800d81c0000d81c0000d81c0000d81c000015
:10031800d81c0000d81c0000d81c0000d81c000005
:10032800d81c0000d81c0000d81c0000d81c0000f5
:10033800d81c0000d81c0000d81c0000d81c0000e5
:10034800d81c0000d81c0000d81c0000d81c0000d5
:10035800d81c0000d81c0000d81c0000d81c0000c5
:10036800d81c0000d81c0000d81c0000d81c0000b5
:10037800d81c0000d81c0000d81c0000d81c0000a5
:10038800d81c0000d81c0000d81c0000d81c000095
:10039800d81c0000d81c0000d81c0000d81c000085
:1003a800d81c0000d81c0000d81c0000d81c000075
:1003b800d81c0000d81c0000d81c0000d81c000065
:1003c800d81c0000d81c0000d81c0000d81c000055
:1003d800d81c0000d81c0000d81c0000d81c000045
:1003e800d81c0000d81c0000d81c0000d81c000035
:0803f800d81c0000d81c000015
:020000040000fa
:1011b4000400fa00000f780011079800510207009c
:1011c40040c0b30053e8b7009e01070050428800b6
:1011d4009c010700604288001e0078009b090700fc
:1011e400704288001e009000980907008042880021
:1011f4000040eb0052e8b700d0fe2f00c2ff07000a
:101204000080fa00000006000200fa00881f78003f
:10121400000f7800ca42a800c0c1b300ce01070085
:10122400804078001e007800014878001e04e80021
:10123400d0c1b300c8010700004c78001e84e80048
:10124400f0c1b300c4010700004c78001e00780010
:1012540063044000e0c1b300bf010700004c780004
:101264004f0478000080fa00000006000000fa0035
:101274000040eb0052e8b7000080fa0000000600ce
:101284000000fa000041eb00f1c1b30010c0b3004c
:10129400ca0107000080fb000080fa00000006007d
:1012a4000000fa0070428000870907000080fa00fd
:1012b400000006000000fa00804280008809070050
:1012c4000080fa00000006000000fa000300370066
:1012d4007042800076090700d90707007042800039
:1012e4007f0907000000e000f9ff32000300370027
:1012f400804280006e090700d10707008042800009
:10130400770907000000e000f9ff32000080fa00ce
:10131400000006000200fa00804280007009070005
:101324000000e000030032000000eb00000f780032
:1013340003003700804280005d090700000f780039
:101344001e0078000080fa00000006000200fa0087
:10135400704280005c0907000000e00003003200d6
:101364000000eb00000f7800060037007042800098
:10137400ceb897003d0907006f0007001000200059
:10138400000f78001e0078000080fa0000000600bc
:101394000400fa00000f780011428000004280002f
:1013a400808f500010003a00804280004c090700f2
:1013b4000000e000030032000000eb00100798007a
:1013c4001a0037008042800039090700f041880084
:1013d400f04180006f0707000080fb001042880086
:1013e4000000eb000042880000428000804078004a
:1013f4000000e80000428800f04180000d0707006b
:10140400804078001e007800014878001142800076
:1014140000428000808f500002003a00f0418000ba
:101424008707070010002000100798001e00900096
:101434000080fa00000006000400fa00204798002b
:101444008e80e8008041eb000041eb0010c0b30047
:1014540092060700000f78001e007800801f7800b5
:10146400baff07008f87e9000080fa000000060039
:101474003600f800809fbe00829fbe00849fbe009d
:10148400869fbe000000fa00080007008ac0a90079
:101494000080fa004f03be004f02be004f01be00a1
:1014a4004f00be003600f900004006000200fa00ba
:1014b400f0c0b30028010700104798001e409000b8
:1014c400e84f50001a003a0053c8bf00e44f5000e0
:1014d40002003a007c0007001500370052c0b30038
:1014e40001ceb30020c0b30034010700004f7800e0
:1014f40070428000fa0807000000e0000900320092
:1015040091c0b30020c0b3002001070061c1b30043
:1015140020c0b3001d01070040c0b30053e8b7006a
:101524000300370050c0b30053e8b70002000700bf
:101534000080fa00000006000400fa00881f78000a
:1015440053c8bf00e64f50005c0032000041eb007e
:10155400f1c1b30010c0b300180107003047980070
:101564003e409000f94f5000090032003e40900088
:10157400f64f5000f5ff3a0091c0b30020c0b3000d
:101584000201070091c1b30020c0b300ff000700af
:1015940070428000c6080700000f78006042800097
:1015a4009e00780061009800684280001e00780068
:1015b400f0060700604c980060c0b30053e8b70021
:1015c40010c0b300d70007000040eb00d5000700af
:1015d400ca42a90000c6b300380107006042800077
:1015e400604890006b404000340107006042800076
:1015f40010407800310107006042800010409000e4
:101604002e01070052c8bf00804078000040e80067
:1016140052e8b700014078002801070060428000ca
:101624004040900025010700604280005040900037
:101634002201070060428000604090001f01070003
:1016440060428000704090001c01070060428000ee
:101654002048900019010700604280003048900043
:101664001601070060428000600090006a060700cf
:101674000040eb00204798000700370060428000dc
:1016840060009000470607000c0107002e40900000
:101694000040e8002047980060428000e048900045
:1016a4002e40900080cf5000f4ff3e00ca42a800b4
:1016b4006042800060009000e10607004f0478005b
:1016c4000080fa00000006000400fa00881f780079
:1016d40072c0b30001c8b30060c0b300b700070014
:1016e4000004e00054003200ca42a90000c2b30062
:1016f400f2000700e10007006b405000204798000b
:1017040050428000ae4090006148980058428000ea
:10171400da000700004c780058428000d700070028
:101724001044980058428000d400070020449800d8
:1017340058428000d100070040449800584280007d
:10174400ce0007005044980058428000cb000700a8
:101754006044980058428000c80007007044980014
:101764005042800090007800000420000080600057
:101774000000e00006003a0058428000bf00070065
:10178400004c980058428000bc000700104c9800a0
:1017940058428000b9000700204c9800584280004d
:1017a400b6000700304c98002e40900000c0e900bd
:1017b400d0050700000f7800b000070080407800d3
:1017c4001e0078008d060700ac00070080407800fa
:1017d4001e007800760607000040eb0030479800b2
:1017e40008003700a500070000417800be409000c3
:1017f4001e0078003f0607003e4090000040e800cd
:10180400304798003e4090008080fb002e409000be
:101814000080fb000080e900808f5000f1ff35005c
:101824009600070044e8b700ca42a800804280003e
:101834009e0078000d0807004f0478000080fa002d
:10184400000006000200fa000001200039fb070036
:10185400000f78001e00780081ff2f0010886000c0
:101864001000a0009e00780070ff2f009108600017
:101874009e007800f0fe2f00910860009e00780022
:1018840000022000910870009e00780000042000ef
:10189400910870009e007800f0c72f009108600046
:1018a4001e007800f13f2f001088600001802000a6
:1018b400108870001e007800f1ff2c001088600072
:1018c40001002100108870001e007800f1ff230041
:1018d4001088600001002800108870009e007800c5
:1018e4000040eb00a04098009e0078000006220013
:1018f400a00098009e00780000062200c000980016
:101904009e00780010012200b00098009e0078002c
:1019140010102100d00098001e0078000080fa000a
:10192400000006000200fa00004f78001e40780014
:1019340061406000c700dd00cbc2bf000074a1009d
:1019440001407000cbe2b70000000000000000007e
:101954000080fa00000006000400fa002047980006
:10196400ca42a900ae40900000c8b30000c0700095
:101974005200070041000700004f7800ca42a80047
:101984001e80fb000080fa00000006000200fa003e
:10199400004f780011479800ca42a90000ccb30058
:1019a4001e407000450007001e40900043000700e1
:1019b400ca42a8000080fa00000006000600fa00ef
:1019c4002047980031479800424798002e409000e5
:1019d400e1ff0700004f78003e4090001e4f60007a
:1019e4009e80fb004e4090000080fb000088de00db
:1019f400004f78001e80fb000080fa000000060003
:101a04000600fa00204798003147980042479800a2
:101a1400534798002e409000cfff0700004f7800f6
:101a24003e40900080c0ea001e40780000c0600084
:101a3400004f78005e4090008080fb004e40900094
:101a44000080fb000008dd0050479800de40900055
:101a54003e40900000c06000504798005e409000f7
:101a64001e40700050479800de4090002e409000c9
:101a7400c6ff07000080fa00000006000000fa001c
:101a840040c2a9000000eb004012880040c2bf0021
:101a9400624060000004e000fcff3a0040c2bf0066
:101aa400614060000004e000fcff3200401280004e
:101ab4000080fb000080fa00000006000400fa0029
:101ac400204798002e4090000080fb0040128800c0
:101ad40040c2bf00624060000004e000fcff3a0026
:101ae40040c2bf00614060000004e000fcff32001f
:101af40040128000004f78001e80fb000080fa0036
:101b0400000006000000fa0033000700ca42a800e3
:101b140031c0b30020c0b3009cff070081c0b300f4
:101b2400e0c0b30099ff070013c0b30052c0b30074
:101b340001c2b30040c0b300b1ff07008041eb0015
:101b44000041eb0071c0b30030c0b300acff07002c
:101b540033c1b3000041eb00f1c1b30080c0b30056
:101b6400a7ff0700f0c0b3007bff070011c0b3005c
:101b740000c2b30085ff070011c1b30010c2b30057
:101b840082ff070001c6b30020c2b3007fff070035
:101b940001c2b30030c2b3007cff070023c0b3000e
:101ba40042c0b30001cfb300c0c2b30094ff07002a
:101bb40023c0b30012c0b300e1c0b300c0c2b3007d
:101bc4008fff070061c1b30020c0b3006fff07009f
:101bd4000080fa00000006000000fa004382a90019
:101be4004362a9004342a9004322a90042e2a9009a
:101bf4004302a80042c2a90042a2a8002124200056
:101c04009140780030ceb30000c060000034a000e2
:101c140042e2b70042c2bf003040b30042e2b70024
:101c24000000eb002012880041a2a80040c2a900d5
:101c340041e2a8000080fa00000006000000fa005b
:101c44001002070030fe2f004efc07009001200018
:101c54004e07070091c1b30060c1b300d301070070
:101c64008040eb0070c1b300d001070031c0b30065
:101c7400e0c3b300cd0107001000200043070700b4
:101c840040062000270007000080fa00000006003c
:101c94000200fa00004f78009e40780060c1b30053
:101ca400c20107000080fa00000006000200fa00ea
:101cb400004f78009e40780061c060006140600081
:101cc4004401dd006109200091407800f0ceb300aa
:101cd40000c060000240700096e0b7000080fa0087
:101ce400000006000000fa0081c7b300e0c3b3009f
:101cf400ae0107000080fa00000006000000fa00b0
:101d040031c0b300e0c3b300a80107000080fa00ab
:101d1400000006000000fa00c08520000080fa00e0
:101d2400000006002800fa00700798006000b80060
:101d340040079800510798006000b80020079800f9
:101d4400310798006000b800008fbe000000eb006f
:101d540060079800060037003501070040062000a0
:101d6400030707006e0090000000e8006007980079
:101d7400ee009000700c2000808f5000f6ff3600bb
:101d84000000eb00600798001d00370028010700e1
:101d940040852000100090006101b9004e009000c1
:101da400de00900000004100818049004007980057
:101db4005107980040852000200090006101b9007f
:101dc4002e009000be009000000041008180490078
:101dd40020079800310798004085200030009000cb
:101de400cf80de001e0f40005e97480040062000b2
:101df400df0607006e0090000000e800600798000e
:101e0400ee0090007e009000808f5000dfff3900cc
:101e14004e009000de00900078fa0700201798002a
:101e2400311798007e009000cf80de0073fa07001f
:101e340000179800111798007e0090000000e00041
:101e440007003d0002002000037824000e109000db
:101e54009e10900095fa070000179800111798003b
:101e64000e1190009e1190002e109000be10900054
:101e7400ebfa0700e0428800f14288002e0090004f
:101e8400be0090005dfa0700600f9800710f980083
:101e94007e009000cf80de0058fa0700400f9800c3
:101ea400510f98007e0090000000e00007003d0004
:101eb40002002000037824004e089000de08900001
:101ec4007afa0700400f9800510f98004e099000cd
:101ed400de0990006e089000fe089000d0fa07001a
:101ee40000438800114388001e00be0043fa070027
:101ef400200f9800310f98007e009000cf80de0004
:101f04003efa0700000f9800110f98007e00900021
:101f14000000e00007003d000200200003782400d8
:101f24000e0890009e08900060fa0700000f9800c9
:101f3400110f98000e0990009e0990002e08900041
:101f4400be089000b6fa0700204388003143880099
:101f54000080fa00000006000200fa000d000700ed
:101f6400000f7800003923001e004000cf80de00ff
:101f740022fa070002002000c3382400a8fa070050
:101f840002002000c320240048fa07000080fa0061
:101f9400000006000000fa004085200010007800d0
:101fa4000080fa00000006000200fa002501070084
:101fb40000cdb30014010700b0c1b3001201070043
:101fc400280107001f01070010cdb3000e01070010
:101fd400823e20008e0078002000200000010700cf
:101fe400200107009e4090004085200001487800b1
:101ff4009e40780040852000114098000080fa003f
:10200400000006000400fa00881f780010079800fa
:102014000040eb00004f78001a0037001e80fb00e0
:102024004200dd00800078001e0090000084400023
:102034001e80fb000000e8004185200000004000f5
:102044000100400010007800cf80de00ebf90700ab
:102054000002be001e80fb00c200dd00c08520001f
:10206400008040001001be000400be000efa07000c
:10207400923d2200f3a92300abfa0700008cbe00b6
:102084001e4fe80020c0b3009e4f1000e3ff36004f
:102094004f0478000080fa00000006000000fa00f7
:1020a4004085200010009000cf80de00d3f90700a7
:1020b400e2428000f3428000fbf90700923d2200d7
:1020c400f3a9230098fa07000080fa000000060034
:1020d4000000fa004085200020009000cf80de0040
:1020e400c6f907000243800013438000eef907009d
:1020f400923d2200f3a923008bfa07000080fa0026
:10210400000006000000fa00408520003000900026
:10211400cf80de00b9f907002243800033438000fa
:10212400e1f90700923d2200f3a923007efa07009b
:102134000080fa00000006000400fa00881f7800fe
:10214400100798000040eb00004f78001a00370099
:102154001e80fb004200dd00800078001e0090001d
:10216400008440001e80fb000000e8004185200040
:10217400000040000100400010007800cf80de0025
:102184009ef907000002be001e80fb00c200dd00b5
:10219400c0852000008040001001be000400be0085
:1021a400c1f9070052832700e3d823005efa070031
:1021b400008cbe001e4fe80020c0b3009e4f1000ec
:1021c400e3ff36004f0478000080fa0000000600a8
:1021d4000000fa00608520000080fa00000006007c
:1021e4000400fa00100798000000eb00000f7800cc
:1021f4000a0037001e007800800078001e0090005e
:10220400008140009e80e80040852000008040005e
:1022140010407800004978001e0fe80050002000ac
:102224009e0f1000f3ff34000080fa000000060047
:102234000600fa008300070000cdb3007200070017
:10224400d0c1b30070000700860007007d000700be
:1022540010cdb3006c000700823e20008e00780091
:10226400600020005e0007007e0007009e40900092
:1022740040852000214098009e4078004085200041
:1022840031409800be4090004085200041409800b5
:10229400ae4090004085200051409800de40900000
:1022a4004085200061409800ce4090004085200089
:1022b40071409800608520000080fa00000006004c
:1022c4000800fa00300798005e00070000cdb30054
:1022d4004d000700d0c1b3004b00070061000700a8
:1022e4005800070010cdb30047000700823e2000cd
:1022f4008e007800600020003900070059000700b4
:102304009e4090003e009000014878003e009000fe
:102314008000e8001e407800804878003e0090006d
:102324008080e8003e409000804878003e009000a5
:10233400e30040002e409000804878003e0090006a
:10234400e40040005e409000804878003e00900029
:10235400e50040004e409000804878000080fa007c
:10236400000006003600f800809fbe00829fbe0079
:10237400849fbe00869fbe000000fa00080007008c
:102384008680a9000080fa004f03be004f02be0001
:102394004f01be004f00be003600f90000400600a9
:1023a4000000fa000080fa00000006000200fa00b3
:1023b400004f7800114798002200070000cdb300b9
:1023c400110007001e4078000f0007001e40900017
:1023d4000d000700230007000080fa00000006003b
:1023e4000600fa00000f78001107980022079800f1
:1023f4002e0190009e0090001e0078007ffa0700d6
:102404000080fa00000006000200fa00004f780085
:102414001e4078009ffa070019c2bf000044b200b2
:102424000004e000fcff3a0019c2bf0001c8b30079
:10243400014060000004e000fbff3a000080fa0065
:10244400000006000000fa00a0fa070016c2bf0050
:10245400614060000004e000fcff3a000080fa00e4
:10246400000006000000fa009afa070016c2bf0036
:10247400644060000004e000fcff3a000080fa00c1
:10248400000006000400fa0000222c001007980047
:10249400f0052000000f78009e0078001e009000d8
:1024a4008efa070090fa07000080fa000000060088
:1024b4000000fa005301070030fe2f009dfa0700c8
:1024c40090012000310507008040eb00e0c1b3001b
:1024d4001b0107008040eb00f0c1b30018010700a6
:1024e4008040eb0000c2b300150107008040eb0000
:1024f40010c2b300120107008040eb0020c2b300f9
:102504000f0107008040eb0030c2b3000c0107004c
:102514008040eb0070c2b300090107008040eb006b
:10252400a0c2b30006010700d1c0b300c0c2b3000b
:102534000301070081c0b300d0c2b300000107004b
:1025440001c8b300e0c2b300fd0007008040eb0007
:10255400f0c2b300fa000700a1c0b30010c3b30077
:10256400f70007008040eb0080c3b300f4000700cd
:10257400f0562f00c1d1230030418800414188002a
:10258400f0562f00c1d123005041880061418800da
:10259400f0562f00c1d1230070418800814188008a
:1025a4000080fa00000006000200fa00004f7800e4
:1025b4009e40780061c06000614060004501dd001c
:1025c400a109200091407800f0cdb30000c0600064
:1025d400024070009ae0b7000080fa000000060094
:1025e4000200fa00004f780020c0b3009e4f100094
:1025f40004003a0081c0b30010c3b300d000070048
:102604001400370040c0b3009e4f100004003a008d
:1026140091c0b30010c3b300c90007000d00370018
:1026240080c0b3009e4f100004003a00a1c0b30064
:1026340010c3b300c20007000600370000c1b30096
:102644009e4f100003003a00b1c0b30010c3b300a2
:10265400bb0007000080fa00000006000200fa0038
:10266400004f7800114798001e04e00005003a006e
:102674001e409000ef406000c0c2b300b0000700ed
:10268400060037001e4090006f4060000044a00028
:1026940080407800c0c2b300a90007000080fa009f
:1026a400000006000000fa008040eb00d0c2b30036
:1026b400a30007000080fa00000006000000fa00f2
:1026c40081c0b300d0c2b3009d0007000080fa00af
:1026d400000006000400fa00100798000040eb0018
:1026e400004f78000a0037001e81fb001e80fb00ab
:1026f400800078001e009000008040009040780028
:102704006082200000004100014878001e4fe8006c
:1027140070c1b3009e4f1000f3ff36000080fa0032
:10272400000006000000fa00608220000080fa0029
:10273400000006000000fa000080fa000000060015
:102744000000fa000080fa00000006000200fa000f
:102754009c00070060cab300860007000040eb003d
:10276400840007009f0007009600070070cab300aa
:10277400800007008e000700004f780099000700d2
:102784001e80fb000080fa00000006000200fa0030
:10279400881f7800000f780000418000cf80de00a1
:1027a40016f807003241800043418000def807003c
:1027b40092418000a34180003cf807001e0178008c
:1027c4000089be001e0078006404400010418000af
:1027d400cf80de0009f80700524180006341800089
:1027e400d1f80700b2418000c34180002ff80700f0
:1027f400008cbe001e007800680440002041800068
:10280400cf80de00fdf70700724180008341800025
:10281400c5f80700d2418000e341800023f8070097
:10282400008cbe004f0478000080fa00000006000f
:102834000000fa00008220000080fa000000060078
:102844000000fa00008220000080fa000000060068
:102854000400fa00100798000000eb00000f780055
:102864000a0037001e007800800078001e009000e7
:10287400008140009e00780000822000008040001b
:1028840010407800004978001e0fe8005000200036
:102894009e0f1000f3ff34000080fa0000000600d1
:1028a4000000fa004700070060cab30031000700c7
:1028b40020c3b3002f0007004a00070041000700af
:1028c40070cab3002b000700823e20000182200062
:1028d40060002000b6f907004200070000822000d3
:1028e4000080fa00000006000200fa00000f7800e1
:1028f4003400070060cab3001e00070020c3b30001
:102904001c000700370007002e00070070cab30040
:1029140018000700823e20009e007800600020001e
:10292400a3f907002f0007000080fa00000006004a
:102934000000fa008aa0a9000080fa000040060006
:102944000200fa00004f7800114798001d000700ac
:1029540060cab300070007001e40780005000700a6
:102964001e409000030007001e0007000080fa00cc
:10297400000006000200fa00004f78001e407800b4
:10298400b1f9070009c2bf000044b2000004e0002e
:10299400fcff3a0009c2bf0001c8b3000140600057
:1029a4000004e000fbff3a000080fa00000006008b
:1029b4000000fa00b2f907000080fb000080fa0072
:1029c400000006000000fa00b5f9070006c2bf00c7
:1029d400614060000004e000fcff3a000080fa005f
:1029e400000006000000fa00aff9070006c2bf00ad
:1029f400644060000004e000fcff3a000080fa003c
:102a0400000006000400fa0000222c0010079800c1
:102a1400f0052000000f78009e0078001e00900052
:102a2400a3f90700a5f907000080fa0000000600da
:102a34000a00fa004007980042c0bf000080fb0073
:102a44004500de006047980090028000100798005f
:102a5400ff3ffc00210420009140780000ceb30029
:102a640000c0700042e0b7001e0090009002880091
:102a7400a0002000aff6070020079800ae009000e9
:102a84000000eb00900098002e0090009000900051
:102a94002e00900001087800ae0090000000eb00ca
:102aa400b00098002e009000ce00900041009800e5
:102ab40090028000000f7800ff3ffc006e40900001
:102ac40067406000c500dd0042c0bf007f40600079
:102ad4000140700042e0b7001e00780090028800b8
:102ae4002e0090000080fa00000006000c00fa009e
:102af40040079800510798000000eb003007980049
:102b040042c0bf000080fb004500de004047980043
:102b14009002800010079800ff3ffc002104200071
:102b24009140780000ceb30000c0700042e0b700ce
:102b34001e009000900288004e009000b50007002f
:102b44000000e000030032004e0090006500070022
:102b540030079800de0090004e0090000f00070040
:102b640090028000000f7800ff3ffc004e40900070
:102b740067406000c500dd0042c0bf007f406000c8
:102b84000140700042e0b7001e0078009002880007
:102b94003e0090000080fa00000006001000fa00d9
:102ba400500798006107980042c0bf000080fb00f6
:102bb4004500de00004f9800900280002007980036
:102bc400ff3ffc00210420009140780000ceb300b8
:102bd40000c0700042e0b7002e0090009002880010
:102be4005e0090008b0007000000e0000f00320040
:102bf4009002800010079800ff3ffc000e489000f0
:102c040067406000c500dd0042c0bf007f40600037
:102c14000140700042e0b7001e009000900288005e
:102c24000000eb00700798002b00370040002000e4
:102c340040f60700300798003e009000ee00900038
:102c440001087800be0090000000eb00900098009e
:102c54005e0090007e0007000000e00004003200e7
:102c64005e009000be009000010878000400370068
:102c74005e00900010009000be00900011009800cb
:102c84005e009000be009000110098005e0090006d
:102c9400300090008000e8005e0090003100980051
:102ca40090028000000f7800ff3ffc000e48900067
:102cb40067406000c500dd0042c0bf007f40600087
:102cc4000140700042e0b7001e00780090028800c6
:102cd40010002000700798007e0090000080fa0029
:102ce400000006001000fa006007980042c0bf0010
:102cf4000080fb004500de00204f98009002800019
:102d040020079800ff3ffc00210420009140780038
:102d140000ceb30000c0700042e0b7002e00900067
:102d2400900288006e009000490007000000e00057
:102d34000f0032009002800010079800ff3ffc0053
:102d44002e48900067406000c500dd0042c0bf000f
:102d54007f4060000140700042e0b7001e00900018
:102d6400900288000000eb007007980026003700ee
:102d74006e00900090007800410798004e0090008b
:102d840090007800310798004e0090009000900069
:102d94006e009000010878004e00900037f607009e
:102da4006e009000300090008000e9006e009000fa
:102db400310098006e009000250007000000e0003c
:102dc40003003200ee0090000000eb009000980039
:102dd40090028000000f7800ff3ffc002e48900016
:102de40067406000c500dd0042c0bf007f40600056
:102df4000140700042e0b7001e0078009002880095
:102e04003e009000700798007e0090000080fa0059
:102e1400000006000400fa00000f78001e0078008d
:102e2400b00090001e007800400090000001eb000c
:102e340012079800808f500002003a001000200012
:102e4400100798001e0090000080fa0000000600a1
:102e54000400fa00000f78001e0078003000900093
:102e64008000eb00110798000000e00002003a0027
:102e740010002000100798001e0090000080fa0047
:102e8400000006000200fa00000f78001e0078001f
:102e9400300090000080fa00000006000800fa00ec
:102ea40020479800210798006247980073479800cc
:102eb4002e4090000f000700000f7800ee409000b5
:102ec4001e007800cd000700fe4090001e00780030
:102ed400b7000700ae0190002e4190008040eb0047
:102ee4001e007800660007001e0078000080fa00cb
:102ef400000006000400fa0020479800600020004b
:102f04008cf50700000f78002e4090000080fb0035
:102f14000080e80087f50700800078001e00780034
:102f2400110098001e007800ae409000014878001f
:102f34009e0078000040eb00c04098001e0078001e
:102f44000080fa00000006000200fa00889fbe001c
:102f54008a1f7800000f78001e0078009e0007008a
:102f6400004478001e007800ad000700804478001b
:102f74001e0078006d000700000578001e00780030
:102f84008400070088417800094178008a007800ad
:102f9400c2ff07004f0578004f04be000080fa000e
:102fa400000006000400fa00000f78001e007800fc
:102fb400404090008080fb001e00780010407800a4
:102fc4000080fb000080e800808f50000300350083
:102fd400f00f2000100798000c0037001e00780046
:102fe400900090001e007800404190000280fb0099
:102ff40000804000104078000080fb00100798001b
:103004008240e8001e007800414098001e009000b5
:103014000080fa00000006000200fa00000f7800a9
:103024009e0078000040eb00c04098000080fa0049
:10303400000006000400fa00000f78002147980001
:103044001e007800900090002e4090000080fb004d
:10305400008040000080e800104078000080fb0001
:103064000080fa00000006000200fa00000f780059
:103074001e007800100090000080fa000000060096
:103084000600fa00000f78002147980032479800a4
:10309400230798000f0037001e007800900090006e
:1030a4002e4090000080fb00008040008080e800fb
:1030b4002e00900010407800804878002e40900048
:1030c4000040e800204798002e0090000000e8002f
:1030d400200798003e4090000040e90030479800e7
:1030e4003e409000e14f4000ebff3a000080fa00c0
:1030f400000006000400fa00000f78002147980041
:10310400324798001e007800900090002e409000f6
:103114000080fb00008040000080e800be4090007a
:10312400014878000080fa00000006000200fa005e
:10313400000f78001e007800100090000080e80066
:103144000080fa00000006000600fa00000f780074
:103154002147980022079800ae0190002e4190006c
:103164008040eb001e007800c5ff07000080fa00d5
:10317400000006000200fa00000f78001e0078002c
:103184001040780000c0e8000080fb000080fa00d6
:10319400000006000200fa00000f78001e0078000c
:1031a400104078000080fb000080fa000000060058
:1031b4000400fa00000f7800214798001e007800f0
:1031c400100090000000e800ae4090000148780034
:1031d4000080fa00000006000200fa00000f7800e8
:1031e4001e007800100090000000e80010407800f5
:1031f4000080fb000080fa00000006000400fa00d2
:10320400000f7800214798001e00780010009000fd
:10321400ae409000014878000080fa0000000600eb
:103224000200fa00000f78001e00780010009000e1
:10323400104078000080fb000080fa0000000600c7
:103244000200fa00000f78001e00780010009000c1
:103254000af507001e00780008f507000080fa0050
:10326400000006000200fa000000eb00000f7800e6
:10327400070037001e007800800040000080200016
:103284008080400000a42100800878001e0fe80020
:10329400f00020009e0f1000f6ff360040a221002f
:1032a400f0408800e0992100004088000080fa0086
:1032b400000006000400fa00889fbe0015f807000d
:1032c400100798001e0090000000e0001700320074
:1032d4001e009000d2ff0700004f78001e009000ef
:1032e400bdff0700104798001e4090000080fb00bf
:1032f400800040000080200000804000900478009e
:103304001e00900089ff0700000478001e00900052
:10331400a0ff070080407800080178001e40780074
:10332400090001001e009000c5ff07004f04be0005
:103334000080fa00000006000e00fa00204f9800fa
:10334400314f980062079800cba2a8006e0090004d
:10335400104078008080fb006e0090000000e800c0
:10336400104078000080fb004800dd000080400031
:103374002007980066004700100798004b000700dc
:1033840051000700300798004107980027003700d4
:1033940000c1b300d7fe0700000f78001e019000a3
:1033a40041c0b3001e00780067ff07003cfd070022
:1033b4008001780062c0b30041c0b3001e007800f1
:1033c4002fff07009afb07008001780062c0b3005a
:1033d400a1c0b3001e00780029ff0700ae4890008a
:1033e4001e00780085ff07008040eb001e00780077
:1033f4006fff07001e007800801f7800d3f70700d6
:103404008f87e9002e0090000000e9002007980053
:10341400900020005d010700300c200054010700db
:103424002900070030079800410798002e009000fb
:103434000000e000d6ff3a00cba2a9000080fa0009
:10344400000006000400fa00004f780011479800bd
:1034540012079800f3c0b3001e4178009e0090004c
:103464001e4090008dfe0700801f7800b7f707000c
:103474008f87e9000080fa00000006000400fa00cb
:10348400004f7800114798001207980000000000d0
:103494000080fa00000006000000fa00590007004e
:1034a400020007000080fa00000006000000fa0095
:1034b4000000eb00900988000000eb008009880000
:1034c4000080fa00000006000000fa008009800075
:1034d40040438800900980005043880040438000a6
:1034e400514380005200200003002000c2f5070071
:1034f4000080fa00000006000400fa008009800041
:10350400000f780090098000100798001e01be008b
:1035140040438000514380000000510081805900e5
:103524005200200003002000b3f507000080fa00d9
:10353400000006000c00fa004007980051079800ac
:1035440080098000200798009009800030079800c7
:103554002e039000be039000ce0090005000200087
:10356400000ab8004e0090006000b9000501780020
:10357400000141005e0090006500b90000014100b7
:1035840082027800041f430005974b0004003700b3
:103594008009800020079800900980003007980077
:1035a4002e009000be009000be0f5000ae8f580059
:1035b400f7ff39000080fa00000006000400fa005a
:1035c400008fbe009e007800803e20000009b800f5
:1035d4001e0078006000b900030278000002420077
:1035e4009e009000803e20000088b9000002420046
:1035f400840178000200be00ceff07000080fa00bc
:10360400000006000400fa00d0f927001007980013
:1036140080022000000f78009e0078001e009000b9
:10362400d7f607003be1a8000080fa00000006007e
:103634000200fa0053000700620007006800070058
:1036440095ff0700a100200000052000d8f6070020
:1036540004ff070096fb070000c1b300e0fb07006e
:10366400c1c0b3000040eb00fcfb070073f9070086
:103674000000eb00000f780031003700cbc2bf0020
:103684000080fb004400de006140600000c0ea00ee
:1036940061406000614060004401dd00b12c200005
:1036a40091407800f0ceb30000c06000024070008a
:1036b400cbe2b70020032000b4000700cbc2bf0058
:1036c4000080fb004500de006140600000c0ea00ad
:1036d40061406000614060004501dd00b12c2000c4
:1036e40091407800f0cdb30000c06000024070004b
:1036f400cbe2b70020032000a4000700cbc2bf0028
:103704000080fb004600de006140600000c0ea006b
:1037140061406000614060004601dd00b12c200082
:1037240091407800f0cbb30000c06000024070000c
:10373400cbe2b70020032000940007001e0fe8002e
:10374400500020009e0f1000ccff3400cb82a80054
:10375400cba2a800cbc2a800401f20008b0007000a
:10376400c7f60700f64f500003003a00cb82a900c9
:10377400cba2a900cbc2a9004cff0700cdfe0700d5
:10378400feff37000000fa00313a800000e02f000d
:10379400008060006000b300303a8800417420006b
:1037a4009140780000ceb30000c0600044e7b70049
:1037b40044c7bf00f043b20044e7b7000080fa00fa
:1037c400000006000000fa0042c7bf000042b20039
:1037d4000004e000fcff32000080fa000000060054
:1037e4000000fa000080eb00601988000080eb0004
:1037f400601b88000000eb0050168800b0ff20001a
:10380400301688000000eb0080168800f0ff2b00c3
:10381400601688000000eb00b01688000080eb0002
:10382400901688000000eb0040178800f01f20006d
:10383400201788000000eb00e01688000000eb0071
:10384400c01688000080fa00000006000400fa0098
:10385400100798001e00900075fc0700000f780008
:103864001e0078000080fa00000006000600fa003e
:1038740010079800210798001e00900065fd0700be
:103884000000e000050032001e00900015fd070056
:10389400000f78001e00780069fe0700ae0090005b
:1038a4001e009000bdfc07000080fa000000060026
:1038b4000200fa00000f78001e00780009fd0700de
:1038c4000080fa00000006000200fa00000f7800f1
:1038d4001e0078004ffd07000080fa00000006007b
:1038e4000200fa00000f78001e00780058fd07005f
:1038f4000080fa00000006000200fa00000f7800c1
:103904001e0078005ffd07000080fa00000006003a
:020000040000fa
:10391400540800001400000000000000200800000b
:103924001e0000000000000000080000200000004d
:10393400000000003e080000160000000000000027
:103944006808000004000000000000006c0800008b
:103954000600000002000000040000000000000057
:1039640072080000020000000000000000000000d7
:020000040000fa
:103974006801b8002200b10000000000000000004f
:103984000201e900fcff3a0000000600e2f3210016
:1039940000000000000000000201e900fcff3a0002
:0c39a4000000e900f9ff3a0000000600f6
:020000040000fa
:0439b0000000fe0015
:00000001FF
