:020000040000fa
:080000000002040000000000f2
:020000040000fa
:100400000f802300007f240000018800000000000e
:100410000c000700c0372000010020001100070079
:10042000000020000000e000020032000000020096
:100430000000000090020200000000000040da000e
:100440000000fe004440a900000020000000e00081
:100450000300320000002000a00188004440a800f2
:100460000000060091018800800078000000eb0089
:1004700015003700e280400032a0b4009101ba00bc
:10048000e280400032a0b4009102ba00e280400055
:1004900032a0b4000002eb00472bde00f507b200eb
:1004a000602ce10004003a000059eb008301e900f0
:1004b000fdff3e00040037006128e100010032002a
:1004c0000082eb00040007001101ba000200e00006
:1004d000e8ff3a00000006003159ba008301e90044
:1004e0000c0032002159ba008301e90008003200f3
:1004f0000400e00003003a00e280400032a0b400b3
:10050000f5ff370011d9ba008301e900faff3a007c
:100510008100e800e180400032a0b4000000060045
:020000040000fa
:0200000401f009
:04000c00fbff0000f6
:020000040000fa
:0200000401f009
:04001000bcff000031
:020000040000fa
:0200000401f009
:040014007fff00006a
:020000040000fa
:100008007e0300007e0300007e0300007e030000e4
:100018007e0300007e0300007e0300007e030000d4
:100028007e0300007e0300007e0300007e030000c4
:100038007e0300007e0300007e0300007e030000b4
:020000040000fa
:020000040000fa
:100520000000fa00330007004200070048000700ff
:10053000cbc2bf000080fb004400de0061406000d1
:1005400000c0ea0061406000614060004401dd00dd
:10055000b12c200091407800f0ceb30000c06000c4
:1005600002407000cbe2b700200320005a000700d1
:10057000cbc2bf000080fb004500de006140600090
:1005800000c0ea0061406000614060004501dd009c
:10059000b12c200091407800f0cdb30000c0600085
:1005a00002407000cbe2b700200320004a000700a1
:1005b000cbc2bf000080fb004600de00614060004f
:1005c00000c0ea0061406000614060004601dd005b
:1005d000b12c200091407800f0cbb30000c0600047
:1005e00002407000cbe2b700200320003a00070071
:1005f000cfff37000000fa00313a800000e02f0002
:10060000008060006000b300303a88004174200030
:100610009140780000ceb30000c0600044e7b7000e
:1006200044c7bf00f043b20044e7b7000080fa00bf
:10063000000006000000fa0042c7bf000042b200fe
:100640000004e000fcff32000080fa000000060019
:100650000000fa000080eb00601988000080eb00c9
:10066000601b88000000eb0050168800b0ff2000df
:10067000301688000000eb0080168800f0ff2b0089
:10068000601688000000eb00b01688000080eb00c8
:10069000901688000000eb0040178800f01f200033
:1006a000201788000000eb00e01688000000eb0037
:1006b000c01688000080fa00000006006801b8003b
:1006c0002200b10000000000000000000201e9006b
:1006d000fcff3a0000000600e2f3210000000000e9
:1006e000000000000201e900fcff3a000000e90000
:0806f000f9ff3a0000000600ca
:020000040000fa
:0406f80000000000fe
:020000040000fa
:0406fc000000fe00fc
:00000001FF
